:100000000C942A000C943F000C943F000C943F0089
:100010000C943F000C943F000C943F000C943F0064
:100020000C943F000C943F000C943F000C943F0054
:100030000C943F000C943F000C943F000C943F0044
:100040000C943F000C943F000C943F000C943F0034
:100050000C943F0011241FBECFE5D8E0DEBFCDBF1A
:1000600011E0A0E6B0E0E4E5F1E102C005900D92F8
:10007000A238B107D9F70E9498000C94A8080C94F4
:100080000000DF93CF9300D000D0CDB7DEB79C83C4
:100090008B838B819C819A83898309C088EE93E04E
:1000A0000E94620089819A8101979A83898389815C
:1000B0009A81009799F70F900F900F900F90CF9122
:1000C000DF910895DF93CF9300D000D0CDB7DEB796
:1000D0009C838B838B819C8196958795969587953C
:1000E000CC01A0E0B0E0BC01CD010E940306DC0120
:1000F000CB01BC01CD0120E030E040E851E40E949A
:100100008504DC01CB01BC01CD010E94AF02DC0102
:10011000CB019A83898389819A810197F1F79A8328
:1001200089830F900F900F900F90CF91DF910895DA
:10013000DF93CF93CDB7DEB7E0970FB6F894DEBF6D
:100140000FBECDBF80ED97E098878F830E949B0103
:10015000CE0109969BA38AA3E8E6F0E0FDA3ECA3F9
:10016000F7E0FEA3ECA1FDA100808CA19DA101966A
:100170009DA38CA3EAA1FBA100828AA19BA1019669
:100180009BA38AA39EA191509EA3EEA1EE2351F7BB
:10019000CE01409698A78FA3EFE6F0E0FAA7E9A773
:1001A000FAE0FBA7E9A5FAA5008089A59AA5019622
:1001B0009AA789A7EFA1F8A500828FA198A501961B
:1001C00098A78FA39BA591509BA7EBA5EE2351F772
:1001D000CE014A969DA78CA7E0E6F0E0FFA7EEA728
:1001E000F8E0F8ABEEA5FFA500808EA59FA50196CF
:1001F0009FA78EA7ECA5FDA500828CA59DA50196C5
:100200009DA78CA798A9915098ABE8A9EE2351F728
:10021000CE0109969E838D83CE0140969C838B836D
:10022000CE014A969A8389838F8198859695879582
:10023000969587950E9441008D819E810E94C40100
:100240008F81988596958795969587950E94410010
:100250000E942C028F819885969587950E94410077
:1002600080E065E00E94F5018B819C810E94C401C1
:100270008F81988596958795969587950E944100E0
:100280000E94360287E30E94AD018F819885969582
:100290008795969587950E94410080E30E944002D1
:1002A0008F819885969587950E94410081E30E94F1
:1002B00040028F81988596958795969587950E949F
:1002C00041000E9423028F8198850E9441008B810A
:1002D0009C810E94C4018F819885969587950E9484
:1002E000410080E30E9455028F81988596958795FD
:1002F0000E94410081E30E9455028F819885969566
:1003000087950E9441000E9423028F8198859695CF
:1003100087950E94410029813A8183E0B9010E94BA
:10032000710283E00E949E028F8198850E944100A5
:100330000E9423026DCFDF93CF93CDB7DEB7E0E409
:10034000F0E01082E9E2F0E087E68083EAE2F0E0A4
:1003500088E18083CF91DF910895DF93CF930F924F
:10036000CDB7DEB78983EBE2F0E08081882F90E0A3
:10037000807290700097B9F3ECE2F0E0898180839D
:100380000F90CF91DF910895DF93CF9300D000D0ED
:10039000CDB7DEB79C838B831A8219820FC0298167
:1003A0003A818B819C81FC01E20FF31F80810E94C6
:1003B000AD0189819A8101969A83898329813A8145
:1003C0008B819C81FC01E20FF31F8081882339F728
:1003D0008DE00E94AD018AE00E94AD010F900F9068
:1003E0000F900F90CF91DF910895DF93CF9300D0BE
:1003F0000F92CDB7DEB78A836B8380E889838A81C9
:100400008230C0F48B818031A8F48A81882F90E0FB
:100410009C01220F331F220F331FC901880F991F20
:10042000880F991F820F931F982F8B81980F8981B6
:10043000890F898389810E94AD010F900F900F90E1
:10044000CF91DF910895DF93CF93CDB7DEB70E94B0
:100450002C02CF91DF910895DF93CF93CDB7DEB714
:100460008CE00E94AD01CF91DF910895DF93CF938F
:10047000CDB7DEB788E00E94AD01CF91DF9108953E
:10048000DF93CF9300D0CDB7DEB78A8381E1898334
:100490008A81803311F482E1898389810E94AD01D0
:1004A0000F900F90CF91DF910895DF93CF9300D0FD
:1004B000CDB7DEB78A8385E189838A81813331F4C0
:1004C00081E30E94400288E1898303C080E30E94A7
:1004D000400289810E94AD010F900F90CF91DF9172
:1004E0000895DF93CF9300D000D00F92CDB7DEB741
:1004F0008B837D836C838B8189500E94AD011A822E
:1005000019820FC029813A818C819D81FC01E20F03
:10051000F31F80810E94AD0189819A8101969A839F
:10052000898389819A818830910564F30F900F90B7
:100530000F900F900F90CF91DF910895DF93CF939D
:100540000F92CDB7DEB789838981893020F4898104
:1005500081500E94AD010F90CF91DF910895EF92ED
:10056000FF920F931F937B018C0120E030E040E06D
:100570005FE40E947F0588238CF0C801B70120E06A
:1005800030E040E05FE40E9427040E94AF059B0139
:10059000AC01205030404040504806C0C801B7016F
:1005A0000E94AF059B01AC01B901CA011F910F91D7
:1005B000FF90EF900895A0E0B0E0E1EEF2E00C943F
:1005C0007108DC012B01FA019C91923008F439C1C9
:1005D000EB018881823008F433C1943069F48430AF
:1005E00009F02FC111969C9111978981981709F4F0
:1005F00028C1A9E7B0E025C1843009F421C18230C7
:10060000A9F4923009F01DC19A01AD0188E0EA0118
:100610000990AE01E90109929E018150C1F7E20102
:10062000898111969C918923818308C1923009F4B4
:1006300007C112962D903C901397EB018A819B8104
:100640001496AD90BD90CD90DC901797EC80FD8016
:100650000E811F819101281B390BB90137FF04C09E
:1006600066277727621B730B603271050CF061C03F
:10067000121613066CF537014801062E04C0969435
:100680008794779467940A94D2F721E030E040E0B1
:1006900050E004C0220F331F441F551F6A95D2F744
:1006A00021503040404050402E213F2140235123D3
:1006B000211531054105510521F021E030E040E0F0
:1006C00050E079018A01E628F728082919293CC059
:1006D000232BD1F1260E371E35014601062E04C00C
:1006E00096948794779467940A94D2F721E030E047
:1006F00040E050E004C0220F331F441F551F6A958D
:10070000D2F721503040404050402A213B214C211B
:100710005D21211531054105510521F021E030E031
:1007200040E050E059016A01A628B728C828D92816
:100730000BC0821593052CF01C01AA24BB24650173
:1007400003C0EE24FF24870111969C91D2011196DB
:100750008C91981709F445C0992339F0A8019701A5
:100760002A193B094C095D0906C0A60195012E19FD
:100770003F09400B510B57FD08C011823382228282
:1007800024833583468357831DC081E08183338270
:10079000228288279927DC01821B930BA40BB50BBF
:1007A00084839583A683B7830DC0220F331F441F14
:1007B000551F248335834683578382819381019714
:1007C000938382832481358146815781DA01C9016F
:1007D0000197A109B1098F5F9F4FAF4FBF4328F326
:1007E0000BC0918333822282EA0CFB1C0C1D1D1D61
:1007F000E482F5820683178383E080832481358138
:100800004681578157FF1AC0C901AA2797FDA095B5
:10081000BA2F81709070A070B0705695479537953B
:100820002795822B932BA42BB52B84839583A683AA
:10083000B78382819381019693838283DF0101C014
:10084000D201CD01CDB7DEB7E2E10C948D08A0E274
:10085000B0E0EDE2F4E00C947D0869837A838B8349
:100860009C832D833E834F835887E9E0EE2EF12C45
:10087000EC0EFD1ECE010196B7010E94A0078E016D
:100880000F5E1F4FCE010596B8010E94A0078A890E
:1008900091E089278A8BC701B801AE01475E5F4F9F
:1008A0000E94DB020E94CB06A096E6E00C94990819
:1008B000A0E2B0E0EEE5F4E00C947D0869837A8371
:1008C0008B839C832D833E834F835887F9E0EF2EE3
:1008D000F12CEC0EFD1ECE010196B7010E94A0077F
:1008E0008E010F5E1F4FCE010596B8010E94A00732
:1008F000C701B801AE01475E5F4F0E94DB020E9454
:10090000CB06A096E6E00C949908A0E2B0E0EBE8F4
:10091000F4E00C94710869837A838B839C832D8324
:100920003E834F835887CE010196BE01675F7F4F9C
:100930000E94A007CE010596BE016F5E7F4F0E9408
:10094000A0079985923088F089898230C8F0943068
:1009500019F4823051F404C0843029F4923081F4C7
:1009600089E790E0C6C0923049F420E09A858A89F0
:10097000981321E02A87CE010996BBC0823049F442
:1009800020E09A858A89981321E02A8BCE0141962E
:10099000B0C02D843E844F8458886D887E888F88AF
:1009A000988CEE24FF248701AA24BB24650140E033
:1009B00050E060E070E0E0E0F0E0C1018170907034
:1009C000892BE9F0E60CF71C081D191D9A01AB01F3
:1009D0002A0D3B1D4C1D5D1D80E090E0A0E0B0E0C5
:1009E000E614F7040805190520F481E090E0A0E082
:1009F000B0E0BA01A901480F591F6A1F7B1FAA0C5A
:100A0000BB1CCC1CDD1C97FE08C081E090E0A0E080
:100A1000B0E0A82AB92ACA2ADB2A3196E032F105C9
:100A200049F0660C771C881C991C5694479437949F
:100A30002794C3CFFA85EA892B893C898B859C85CD
:100A4000280F391F2E5F3F4F17C0CA018170907069
:100A5000892B61F016950795F794E79480E090E074
:100A6000A0E0B0E8E82AF92A0A2B1B2B76956795B7
:100A7000579547952F5F3F4F77FDE7CF0CC0440F49
:100A8000551F661F771F17FD4160EE0CFF1C001FEE
:100A9000111F21503040403090E0590790E0690725
:100AA00090E4790760F32B8F3C8FDB01CA018F77CD
:100AB0009070A070B07080349105A105B10561F40B
:100AC00047FD0AC0E114F1040105110529F0405C5D
:100AD0005F4F6F4F7F4F40781A8EFE1711F081E005
:100AE0008A8F4D8F5E8F6F8F78A383E0898FCE01C1
:100AF00049960E94CB06A096E2E10C948D08A8E1ED
:100B0000B0E0E5E8F5E00C947D0869837A838B8397
:100B10009C832D833E834F83588789E0E82EF12CF8
:100B2000EC0EFD1ECE010196B7010E94A0078E01BA
:100B30000F5E1F4FCE010596B8010E94A007898560
:100B4000823040F08989823028F0C701B8010E94C4
:100B5000180801C08FEF6896E6E00C949908ACE0A5
:100B6000B0E0E5EBF5E00C94810869837A838B8330
:100B70009C83CE010196BE016B5F7F4F0E94A00750
:100B80008D81823061F1823050F1843021F48E8188
:100B9000882351F12EC02F81388537FD20C06E810A
:100BA0002F3131051CF06623F9F023C08EE190E06F
:100BB000821B930B29853A854B855C8504C056952D
:100BC0004795379527958A95D2F76623B1F05095CA
:100BD0004095309521953F4F4F4F5F4F0EC020E01D
:100BE00030E040E050E009C02FEF3FEF4FEF5FE70C
:100BF00004C020E030E040E050E8B901CA012C9682
:100C0000E2E00C949D08A8E0B0E0E9E0F6E00C9486
:100C100079087B018C01611571058105910519F435
:100C200082E0898360C083E089838EE1C82ED12C65
:100C3000DC82CB82ED82FE820F831887C801B70168
:100C40000E947C06FC013197F7FF3BC02227332727
:100C50002E1B3F0B57016801022E04C0D694C79487
:100C6000B794A7940A94D2F740E050E060E070E0B7
:100C700081E090E0A0E0B0E004C0880F991FAA1FB7
:100C8000BB1F2A95D2F70197A109B1098E219F2197
:100C9000A023B1230097A105B10521F041E050E068
:100CA00060E070E04A295B296C297D294D835E83D1
:100CB0006F8378878EE190E08E1B9F0B9C838B83E4
:100CC00012C0309781F00E2E04C0EE0CFF1C001FE6
:100CD000111F0A94D2F7ED82FE820F831887CE1A75
:100CE000DF0ADC82CB821A82CE0101960E94CB06FB
:100CF0002896EAE00C949508EF92FF920F931F93C9
:100D00007B018C0180E0E81680E0F80681E00807AE
:100D100080E0180788F48FEFE816F104010511054B
:100D200031F028F088E090E0A0E0B0E017C080E06B
:100D300090E0A0E0B0E012C080E0E81680E0F806A5
:100D400080E0080781E0180728F088E190E0A0E043
:100D5000B0E004C080E190E0A0E0B0E020E230E04C
:100D600040E050E0281B390B4A0B5B0B04C0169582
:100D70000795F794E7948A95D2F7F701EF57FF4F5D
:100D80008081281B310941095109C9011F910F9127
:100D9000FF90EF900895DF92EF92FF920F931F93D1
:100DA000FC01E480F58006811781D180808182304A
:100DB00048F480E090E0A0E1B0E0E82AF92A0A2BAC
:100DC0001B2BA5C0843009F49FC0823021F4EE248F
:100DD000FF24870105C0E114F1040105110519F490
:100DE000E0E0F0E096C0628173819FEF623879079E
:100DF0000CF05BC022E83FEF261B370B2A31310590
:100E00002CF020E030E040E050E02AC0B801A7011B
:100E1000022E04C076956795579547950A94D2F7A8
:100E200081E090E0A0E0B0E004C0880F991FAA1F05
:100E3000BB1F2A95D2F70197A109B1098E219F21E5
:100E4000A023B1230097A105B10521F081E090E036
:100E5000A0E0B0E09A01AB01282B392B4A2B5B2B89
:100E6000DA01C9018F779070A070B070803491055D
:100E7000A105B10539F427FF09C0205C3F4F4F4F52
:100E80005F4F04C0215C3F4F4F4F5F4FE0E0F0E009
:100E90002030A0E03A07A0E04A07A0E45A0710F08B
:100EA000E1E0F0E079018A0127C06038710564F55E
:100EB000FB01E158FF4FD801C7018F779070A070F8
:100EC000B07080349105A105B10539F4E7FE0DC07D
:100ED00080E490E0A0E0B0E004C08FE390E0A0E008
:100EE000B0E0E80EF91E0A1F1B1F17FF05C016957C
:100EF0000795F794E794319687E016950795F79450
:100F0000E7948A95D1F705C0EE24FF248701EFEF1F
:100F1000F0E06E2F679566276795902F9F77D7949F
:100F2000DD24D7948E2F8695492F462B582F5D2987
:100F3000B701CA011F910F91FF90EF90DF900895C4
:100F4000FC01DB01408151812281622F6F7770E0CB
:100F5000221F2227221F9381892F880F822B282F5F
:100F600030E0991F9927991F11969C93119721158D
:100F70003105A9F5411551056105710511F482E0AE
:100F800037C082E89FEF13969C938E9312979A0135
:100F9000AB0167E0220F331F441F551F6A95D1F73D
:100FA00083E08C930DC0220F331F441F551F1296F0
:100FB0008D919C911397019713969C938E93129702
:100FC000203080E0380780E0480780E4580758F375
:100FD00014962D933D934D935C93179708952F3F4F
:100FE000310579F4411551056105710519F484E065
:100FF0008C93089564FF03C081E08C9312C01C920F
:1010000010C02F57304013963C932E93129783E0D5
:101010008C9387E0440F551F661F771F8A95D1F781
:10102000706414964D935D936D937C931797089518
:101030001F93DC01FB019C91923008F447C0808132
:10104000823008F443C0943051F411961C918430DE
:1010500099F58181682F70E0611B71093FC0843070
:1010600021F0923031F48230B9F18181882389F105
:101070002DC011961C9111978230F1F081811817C3
:10108000D9F412962D913C91139782819381821706
:10109000930794F028173907BCF014968D919D9111
:1010A0000D90BC91A02D2481358146815781281750
:1010B00039074A075B0718F4112341F00AC0821769
:1010C0009307A407B50740F4112319F061E070E01D
:1010D00005C06FEF7FEF02C060E070E0CB011F91B1
:1010E00008952F923F924F925F926F927F928F92CC
:1010F0009F92AF92BF92CF92DF92EF92FF920F93A7
:101100001F93CF93DF93CDB7DEB7CA1BDB0B0FB6B0
:10111000F894DEBF0FBECDBF09942A88398848886D
:101120005F846E847D848C849B84AA84B984C88403
:10113000DF80EE80FD800C811B81AA81B981CE0FFA
:10114000D11D0FB6F894DEBF0FBECDBFED010895DF
:04115000F894FFCF41
:1011540000040A1F1F0A040073616D706C65006847
:101164006579207468657265000000000000000065
:10117400000001020203030303040404040404043E
:10118400040505050505050505050505050505050C
:1011940005060606060606060606060606060606EC
:1011A40006060606060606060606060606060606DB
:1011B40006070707070707070707070707070707BC
:1011C40007070707070707070707070707070707AB
:1011D400070707070707070707070707070707079B
:1011E400070707070707070707070707070707078B
:1011F400070808080808080808080808080808086C
:10120400080808080808080808080808080808085A
:10121400080808080808080808080808080808084A
:10122400080808080808080808080808080808083A
:10123400080808080808080808080808080808082A
:10124400080808080808080808080808080808081A
:10125400080808080808080808080808080808080A
:1012640008080808080808080808080808080808FA
:02127400080070
:00000001FF
